:020000040000FA
:0400000080313828EB
:100008007E1480318B1E09280A2812280B1D0D2802
:100018000E28122885314B25803136280B1F1528CC
:10002800162836282100111E1A281B2826282000E9
:10003800111E1F282028262843088A0042080A0083
:10004800803136282100911E2A282B2836282000A6
:10005800911E2F283028362841088A0040080A00B7
:10006800803136287E10090080313A2886310126F1
:100078008031EC0020308400003085004330853129
:10008800AA258031A03084000030850008308531F1
:10009800AA2580317E10200085318E2D2000550341
:1000A800031D5728582862295308031D5C285D281A
:1000B80062290830D1006229853199258031003ABA
:1000C8000319672868288B290F3085316825803106
:1000D80001302000D5000130D1008B2985319925C8
:1000E8008031003A031979287A288B2985313825F7
:1000F8008031013A031D8128822886280230200099
:10010800D1008B2908302000D1008B298531992511
:100118008031003A0319912892288B2984311624BA
:100128008031553A031D99289A28862803302000E3
:10013800D1008B29853199258031003A0319A528EA
:10014800A6288B298431162480312000D600560831
:100158008431B5248031003A031DB328B428B5286A
:100168008628F001F00A2000560882317422803176
:100178002000E0006003031DC228C328CE280230F7
:10018800F00056088231742280312000E1000430EA
:10019800D1008B298531E825803106302000D10037
:1001A8008B29853199258031003A0319DC28DD280F
:1001B8008B298431162480312100A8005730A900EA
:1001C8000030AA002000500821002907AB000030A9
:1001D8002A3DAC002B0886002C08870028088100DF
:1001E800200061082100A800A901A81BA90301306B
:1001F8002000D00721002908803A803C031D0729E8
:10020800280820005002031C0A290B298B292000EA
:10021800D0010530D1008B29853199258031003AEC
:100228000319172918298B298431162480312000B5
:10023800DF005608F0005730F1000030F200610886
:1002480083319423803120005F0603192C292D293E
:100258002E2986280730D1008B29200056088231A4
:100268001222803107302000D100200047088A0080
:1002780046080A0081318531D92580312000D00116
:10028800D5015630F0000030F1000030F200F300E4
:100298000D30F4000030F5008431CF248031230084
:1002A8009E1C572958295E298531E3258031200075
:1002B800D1018B2909302000D1008B295108210058
:1002C800A800A9012908003A03196B298B292808D5
:1002D800003A03196028013A03197228033A0319EE
:1002E8008A28013A03199E28073A0319D528013AA2
:1002F80003191029033A03193129013A0319392935
:100308000F3A03193F29013A031953298B29080089
:10031800F1007108F200F218922994290130952908
:100328000030F000721899299B2901309C2900306F
:100338007006031DA029A2297217A3297213721926
:10034800A629A8290130A9290030F000721BAD297F
:10035800AF290130B02900307006031DB429B62931
:100368007217B7297213721ABA29BC290130BD292C
:100378000030F000721BC129C3290130C4290030A4
:100388007006031DC829CA297217CB297213F219DE
:10039800CE29D0290130D1290030F000F218D52912
:1003A800D7290130D82900307006031DDC29DE2941
:1003B800F217DF29F213721AE229E4290130E5293C
:1003C8000030F000F21BE929EB290130EC2900305C
:1003D8007006031DF029F229F217F329F213F21A15
:1003E800F629F8290130F9290030F000F21BFD291F
:1003F800FF290130002A00307006031D042A062A4E
:10040800F217072AF2130310F21F031403180D2A18
:100418000F2AF217102AF213720808002000E400CD
:100428004508E7004408E6003F30E405E5012D2AC9
:10043800660884006708850000086406031D252AED
:10044800262A272A332A0530E6070030E73D0130FF
:10045800E50754086502031C322A332A1C2A013096
:100468006607840067080318013E85000008E0005D
:1004780002306607840067080318013E85000008FB
:10048800E1005730F0000030F100033066078400C7
:1004980067080318013E8500003FF200013FF300A2
:1004A8006108F400F501F41BF50384315D24823101
:1004B80020005608F0005730F1000030F2006108C3
:1004C8008331942382312000DF005608F900573029
:1004D800FA000030FB00610884313A2482310800B8
:1004E800F30020004508F6004408F5003F30F30506
:1004F800F4019F2A750884007608850000087306B1
:10050800031D872A882A892ABE2A0530F507003064
:10051800F63D5408FF3EF100FF3003180030F200AA
:10052800740871067204031D9A2A9B2A9D2A0230B8
:10053800D12A0130F40754087402031CA42AA52AFE
:100548007E2ABE2A75088400760885000008D12A0C
:1005580001307507840076080318013E85000008FD
:10056800D12A02307507840076080318013E8500F9
:100578000008D12A7008F100F2017208003A031944
:10058800C62A9B2A7108003A0319A62A013A0319B8
:10059800AC2A033A0319B52A9B2A08006330F900EC
:1005A8008331C62382312000EB00162BE81EDD2A9A
:1005B800DE2AE12A22008D16E32A22008D1220006D
:1005C800651CE72AE82AEB2A22000D16ED2A2200EC
:1005D8000D122000E41DF12AF22AF52A22008D15B9
:1005E800F72A22008D112000641FFB2AFC2AFF2A0B
:1005F80022000D15012B22000D112000641E052B71
:10060800062B092B22008D140B2B22008D102000A5
:10061800E41E0F2B102B132B22000D141B2B220072
:100628000D101B2B6B08013A0319DA2A1B2B080043
:10063800210091125A30F0000330F1008531BC25B9
:100648008331210011127D30F0000430F100853132
:10065800B6258331183023009F0090309D00243048
:100668009E00FF309B0002309C000330F0000630F3
:10067800F1008531C8258331F630F0000530F100EE
:100688008531C2258331FA30F0000530F10085311B
:10069800CE2583312000C901CF01CE010830CD001D
:1006A800CC01CB01CA0121009116080020004C089A
:1006B800203E86008701810123001D1D642B652BC8
:1006C800702B20004C08203E8600870181143F08CB
:1006D8008A003E080A00833123009D1C742B752B69
:1006E800802B20004C08203E8600870101153D081C
:1006F8008A003C080A00833120004C08203E86000E
:10070800870101080319892B8A2B902B3B088A0043
:100718003A080A008331932B8431FC248331080082
:10072800F5007008F300F4017308F7007408F80086
:10073800F601BC2B7108860072088700010877074C
:10074800F70078080318780AF8000130F10700303C
:10075800F23D01307802003003197702031CB52BF3
:10076800B62BBA2BFF30F7020030F83B0130F60702
:1007780075087602031CC12BC22B9E2BF709F809BA
:1007880077080800200056083F39FA007A0803194C
:10079800CE2BCF2BD22B0000000000007908F000F0
:1007A800F1015730F2000030F3000830F400003057
:1007B800F50084315D2483315630F0000030F100BB
:1007C8000030F200F3000D30F4000030F500843101
:1007D800CF2483317A080800F00020004D0803195F
:1007E800F62BF72BF12B2100111AFB2BFC2B002CDD
:1007F800700823009A00132C111220004F08303E75
:1008080086008701700881000130CF0708304F0249
:10081800031C0F2C102C112CCF010130CD0221000C
:100828001116080020004A0803191B2C1C2C162C32
:100838004B08203E860087010108C9004B08283E66
:10084800860087010108F0000130CB0708304B0211
:10085800031C2F2C302C312CCB012100911201309C
:100868002000CA022100911670080800FC00FD0152
:10087800492C7D087A07860000307B3D87000108F7
:100888008331F02384310130FD077C087D02031C8D
:100898004E2C4F2C3D2C7908F0007B08F2007A088A
:1008A800F1007C088331942384318331F02384312F
:1008B80008007208F8007008F700702C78088600A5
:1008C80087010108F6000130F807770886008701DC
:1008D800760881000130F7070130F4020030F53B5B
:1008E800740A031D7B2C750A031D7B2C7C2C622C3F
:1008F8000800083020004D020318832C842C982C03
:100908004E08303E86008701010823009A00013016
:100918002000CE0708304E02031C932C942C952CF3
:10092800CE010130CD079A2C2100111208002200B7
:1009380090018C018D018E01083021009000FF305C
:100948008C00C0308D00BF308E0023008D013F30F9
:100958008C00240090018D012100951722009D0133
:100968000800F700F001F00A770882317422843118
:10097800023A031DC02CC12CC32C0030CE2C7708A2
:100988003F3981318C2184317706031DCC2CCD2C45
:10099800C12C013008007008F600D92C76088600B2
:1009A8008701720881000130F6070130F402003037
:1009B800F53B740A031DE42C750A031DE42CE52C91
:1009C800D22C0800F60073082000C5007208C40085
:1009D8007608D4007508C7007408C6008531D92583
:1009E80084318531E32584318531A225843108009D
:1009F80020004C08283E8600870123001908810042
:100A080001302000CC0708304C02031C0C2D0D2DA2
:100A18000E2DCC010130CA07080021001508C03985
:100A2800143895000630200095000630C8000B11D8
:100A38008B160230F0000630F1008531B025853183
:100A4800080084319B2485318531822585318531A3
:100A5800F225853185311125853183311C23853176
:100A680085315B2585310800843116248531003AAB
:100A7800031D3F2D402D492D8531FE258531891CCB
:100A8800462D472D492D01304A2D003008000B1105
:100A9800200048089500380839040319542D552DAD
:100AA8005A2D39088A0038080A0085310800D430E0
:100AB800F2008530F300D230F4000230F500013046
:100AC8008431E62485310800F10071082000EC002B
:100AD80000308531DE258531000001302000D3004B
:100AE800080001302000D2076C085202031C7D2D3B
:100AF8007E2D812D8531ED2585310800703021004E
:100B0800990098012200960121001A1F8C2D8D2D25
:100B1800882D08008531252585318B170B178031E5
:100B280052208531932D8031382820004A08031D32
:100B38009E2DA02D0130A12D003008007530F00049
:100B48000530F1008531B025853108006400800149
:100B58000131890BAB2D003471082000B9007008F1
:100B6800B800080071082000C3007008C20008001F
:100B780071082000C1007008C0000800710820003A
:100B8800BD007008BC00080071082000BF00700894
:100B9800BE00080071082000BB007008BA000800F9
:100BA800013401340834A034003400002000D2019C
:100BB800D3010800F0007008200095000800230009
:100BC8001D1621009116080023001D122100911204
:100BD800080000002000D201D301080016302100CF
:100BE8009700080023001D121D1608008431FC24FC
:100BF800853108002000490808000A340800080068
:020000040001F9
:04000E00E43FFF1FAD
:00000001FF
