:020000040000FA
:0400000080313828EB
:100008007E1480318B1E09280A2812280B1D0D2802
:100018000E2812288531EC25803136280B1F15282B
:10002800162836282100111E1A281B2826282000E9
:10003800111E1F28202826283B088A003A080A0093
:10004800803136282100911E2A282B2836282000A6
:10005800911E2F283028362839088A0038080A00C7
:10006800803136287E10090080313A288631D02622
:100078008031E900FB01FC0120308400003085005C
:100088003C3086314D268031A03084000030850018
:10009800103086314D2680317E1020008531FC2DB0
:1000A80020004B03031D59285A2843294908031DDA
:1000B8005E285F2843290830C700432986313C263B
:1000C8008031003A031969286A286B290F30863174
:1000D800312680312000CB01CB0AC701C70A6B2922
:1000E80086313C268031003A03197B287C286B290D
:1000F8008531C6258031013A031D83288428882844
:1001080002302000C7006B2908302000C7006B2987
:1001180086313C268031003A0319932894286B29AC
:1001280084316E248031553A031D9B289C288828E9
:1001380003302000C7006B2986313C268031003A05
:100148000319A728A8286B2984316E248031200040
:10015800CF004F0885316B258031003A031DB52843
:10016800B628B7288828F101F10A20004F08833102
:100178002C2380312000D9005903031DC428C52829
:10018800D0280230F1004F0883312C238031200021
:10019800DA000430C7006B298631812680310630A9
:1001A8002000C7006B2986313C268031003A0319AC
:1001B800DE28DF286B2984316E2480312000E70097
:1001C8004608503E86008701670881000130E70035
:1001D8006708C6075A084602031CF328F4286B2947
:1001E800C6010530C7006B2986313C268031003AAC
:1001F8000319FF2800296B2984316E2480312000DF
:10020800D8004F08F1005030F2005A088431132406
:100218008031200058060319122913291429882827
:100228000730C7006B294F088231C122803107305F
:100238002000C7003F088A003E080A008131863145
:10024800932680312000C601CB010030F100F20076
:100258000D30F3000030F4004F30853151258031E6
:1002680023009E1C382939293F2986317C26803174
:100278002000C7016B2909302000C7006B294708F7
:10028800E700E8016808003A03194B296B29670859
:10029800003A03196228013A03197428033A03192A
:1002A8008C28013A0319A028073A0319D728013ADC
:1002B8000319F828033A03191729013A03191E29C3
:1002C8000F3A03192329013A031934296B29080025
:1002D8002000CE01CC015D30853100258131200020
:1002E800DC00EE2949305F0603197B297C29822925
:1002F80051305F06031D812982298629F830CE05F1
:100308004C14D2290A305F0603198B298C299829A5
:1003180014305F06031991299229982912305F0633
:10032800031D972998299E294E08F8390138CE00CF
:10033800CC14D2298C305F060319A329A429B0292B
:1003480094305F060319A929AA29B029AC305F06A1
:10035800031DAF29B029B6294E08F8390338CE0055
:100368004C159C294C305F06031DBB29BC29C129AB
:100378004E08F8390238CE0084290B305F0603197D
:10038800C629C729CD2913305F06031DCC29CD29DD
:10039800D2294E08F8390438CE00B429DE1FD529F1
:1003A800D629D829CE15CC155E1FDB29DC29DE29F4
:1003B8004E17CC155E1EE129E229E4294E16CC160B
:1003C800DE1EE729E829F329CE164C17F329CE01BA
:1003D800CC01F3295C08013A03197629EB294C1C56
:1003E800F629F729FB298631C7268131FE2986316E
:1003F800CA2681312000CC1C022A032A072A86310A
:10040800AF2681310A2A8631B226813120004C1D5F
:100418000E2A0F2A132A8631B5268131162A8631EB
:10042800B82681312000CC1D1A2A1B2A1F2A8631A2
:10043800C1268131222A8631C42681312000CC1E72
:10044800262A272A2B2A8631BB2681312E2A863155
:10045800BE26813120004C1F322A332A372A8631A2
:10046800A92681313A2A8631AC2681310800F2006A
:100478007208F300F318412A432A0130442A003055
:10048800F1007318482A4A2A01304B2A00307106B5
:10049800031D4F2A512A7317522A73137319552AA9
:1004A800572A0130582A0030F100731B5C2A5E2A53
:1004B80001305F2A00307106031D632A652A73170D
:1004C800662A7313731A692A6B2A01306C2A003062
:1004D800F100731B702A722A0130732A00307106EA
:1004E800031D772A792A73177A2A7313F3197D2A39
:1004F8007F2A0130802A0030F100F318842A862AE6
:100508000130872A00307106031D8B2A8D2AF317C4
:100518008E2AF313731A912A932A0130942A0030F1
:10052800F100F31B982A9A2A01309B2A00307106A1
:10053800031D9F2AA12AF317A22AF313F31AA52A47
:10054800A72A0130A82A0030F100F31BAC2AAE2AF2
:100558000130AF2A00307106031DB32AB52AF317FC
:10056800B62AF3130310F31F03140318BC2ABE2A78
:10057800F317BF2AF313730808002000E3003D08AF
:10058800E6003C08E5003F30DF005F08E305E401D2
:10059800E02A650884006608850000086306031DD4
:1005A800D62AD72AD82AE62A0430E5070030E63DBD
:1005B8000130DF005F08E4074A086402031CE52AEB
:1005C800E62ACD2A6608E0006508DF0001305F07EB
:1005D800840060080318600A85000008D9006608CE
:1005E800E0006508DF0002305F0784006008031838
:1005F800600A85000008DA006608E0006508DF0088
:1006080003305F07840060080318600A850000084B
:10061800F1005A08E100E2016108F2006208F30003
:10062800503084319424823120004F08F10050303A
:10063800F2005A088431132482312000D8004F0870
:10064800F9005030FA005A088431B9248231080080
:10065800F40020003D08F7003C08F6003F30F200A7
:100668007208F405F5015B2B76088400770885008D
:1006780000087406031D412B422B432B822B0430A8
:10068800F6070030F73D4A08FF3EF200FF30031836
:100698000030F300750872067304031D542B552BA4
:1006A800572B0230952B0130F2007208F5074A08E3
:1006B8007502031C602B612B382B822B7608840073
:1006C800770885000008952B7708F3007608F20074
:1006D80001307207840073080318730A8500000844
:1006E800952B7708F3007608F20002307207840031
:1006F80073080318730A85000008952B7108F20027
:10070800F3017308003A03198A2B552B7208003A33
:100718000319622B013A0319682B033A0319752B45
:10072800552B080021009112DA30F1000330F20055
:1007380086315F26833121001112DE30F10004304A
:10074800F200863159268331193023009F009030FA
:100758009D0024309E00FF309B0002309C00D33067
:10076800F1000630F20086316B2683319B30F100B0
:100778000630F2008631652683319F30F10006305D
:10078800F2008631712683312000C101C501C40100
:100798000830C300FC01FB01C2012100911686311B
:1007A800D12683318631A626833108007C08203E75
:1007B80086008701810123001D1DE32BE42BEF2B0D
:1007C8007C08203E860087018114200037088A00B3
:1007D80036080A00833123009D1CF32BF42BFF2BD2
:1007E8007C08203E860087010115200035088A0014
:1007F80034080A0083317C08203E860087010108FE
:100808000319072C082C0F2C200033088A00320803
:100818000A008431122C8531852583310800F500C2
:100828007108F300F4017308F7007408F800F60182
:100838003C2C72088600870101087707F7007808C2
:100848000318780AF8000130F3007308F207013042
:100858007802003003197702031C332C342C382C0F
:10086800FF30F7020030F83B0130F3007308F60759
:1008780075087602031C412C422C1D2CF709F80937
:1008880077080800F2002000430803194C2C4D2C6F
:10089800472C2100111A512C522C562C7208230077
:1008A8009A006B2C111220004508283E860087010B
:1008B800720881000130F1007108C507083045024F
:1008C800031C672C682C692CC5010130C302210068
:1008D80011160800200042080319732C742C6E2C82
:1008E8007B08203E860087010108C1007B08A03EE6
:1008F800860087010108F2000130F1007108FB074A
:1009080008307B02031C892C8A2C8B2CFB012100CC
:10091800911201302000C2022100911672080800CD
:10092800F8007108F7007808F600AC2C7708860004
:1009380087010108F5000130F4007408F70776080C
:1009480086008701750881000130F4007408F607F5
:100958000130F2020030F33B720A031DB72C730A10
:10096800031DB72CB82C9A2C08002000DD00DE01EE
:10097800CC2C5E087A07DC005C0886008701010839
:1009880084314624843101302000DC005C08DE0715
:100998005D085E02031CD12CD22CBD2C7908F10015
:1009A8007A08F2005D0884311324843184314624A6
:1009B800843108000830200043020318E42CE52C99
:1009C800FD2C4408283E86008701010823009A0070
:1009D8000130F00070082000C40708304402031CEE
:1009E800F62CF72CF82CC4010130F0007008C3076E
:1009F800FF2C210011120800FA0020004F083F398F
:100A0800F9005030F1000830F2000030F3007A08A5
:100A18008431942485310030F100F2000D30F30068
:100A28000030F4004F3085315125853179080800B0
:100A380021001508C03914389500063020009500AB
:100A48000630C00040088631772685318631A326D6
:100A580085310B118B16D230F1000630F200863149
:100A6800532685310800220090018C018D018E01EA
:100A7800083021009000FF308C00C0308D00AF306E
:100A88008E0023008D013F308C00240090018D01E1
:100A98002100951722009D010800F7007708F6004D
:100AA8005E2D760886008701710881000130F50007
:100AB8007508F6070130F3020030F43B730A031D92
:100AC800692D740A031D692D6A2D552D0800F8003B
:100AD800F101F10A780883312C238531023A031D8C
:100AE800762D772D792D0030842D78083F39823185
:100AF8003B2285317806031D822D832D772D013009
:100B080008007C08A03E86008701230019088100A0
:100B18000130F0007008FC0708307C02031C952D9A
:100B2800962D972DFC010130F00070082000C207B7
:100B38000800F70074082000BD007308BC0077089F
:100B4800CA007608BF007508BE0086319326853135
:100B580086317C26853186314526853108008531E8
:100B68003725853186312526853186318F26853191
:100B780085311C25853183319623853186311826A8
:100B88008531080084316E248531003A031DCD2D4E
:100B9800CE2DD72D8631CD268531891CD42DD52D46
:100BA800D72D0130D82D00300800863186268531B2
:100BB800E22D1F18E02DE12DE22DE72D23009F1FC8
:100BC800E62DE72DDD2D9F1BEA2DEB2DD92D0800F5
:100BD8000B11200040089500300831040319F52D49
:100BE800F62DFB2D31088A0030080A0085310800EF
:100BF8008531B32585318531D92585318B170B177B
:100C0800803154208531042E803138280130F0009D
:100C180070082000C80769084802031C142E152E06
:100C2800172EC801C90108008B30F3008630F40084
:100C38006C30F5000130F600013085319D25863194
:100C480008007030210099009801220096012100C7
:100C58001A1F2F2E302E2B2E0800F10071082000AD
:100C6800E9008631972686312000C901C90A0800A3
:100C780020004208031D412E432E0130442E00302F
:100C880008000A30F1000630F2008631532686311A
:100C98000800640080010131890B4E2E003472086F
:100CA8002000B1007108B000080072082000BB00E5
:100CB8007108BA00080072082000B9007108B8006D
:100CC800080072082000B5007108B4000800720816
:100CD8002000B7007108B600080072082000B300B1
:100CE8007108B2000800F1007108200095000800A2
:100CF80023001D1621009116080023001D12210053
:100D08009112080023009F131F149F140800013438
:100D180001340834A8341630210097000800200058
:100D2800C801C901080020004008950008002300F8
:100D38001D121D1608008531852586310800200002
:100D48001508080023001E08080022000D140800DA
:100D580022000D10080022008D16080022008D12B6
:100D6800080022008D15080022008D1108002200BD
:100D78008D14080022008D10080022000D150800AF
:100D880022000D11080022000D16080022000D1285
:100D980008002000410808000F3408000800080077
:020000040001F9
:04000E00E43FFF1FAD
:00000001FF
