:020000040000FA
:0400000080313828EB
:100008007E1480318B1E09280A2812280B1D0D2802
:100018000E28122885313225803136280B1F1528E5
:10002800162836282100111E1A281B2826282000E9
:10003800111E1F282028262843088A0042080A0083
:10004800803136282100911E2A282B2836282000A6
:10005800911E2F283028362841088A0040080A00B7
:10006800803136287E10090080313A288531E5250F
:100078008031EC0020308400003085004330853129
:1000880091258031A030840000308500083085310A
:10009800912580317E1020008531752D2000550373
:1000A800031D572858284E295308031D5C285D282E
:1000B8004E290830D1004E29293085314F2580310D
:1000C80001302000D5000230D10074298431E124A8
:1000D800803123009F1F7128722878281F109F13D2
:1000E80008302000D100742903302000D1002300FB
:1000F8009D019E019F0183310523803121009116C6
:100108007429853180258031003A03198C288D287F
:1001180074298331FB2380312000D60056088431AE
:100128009A248031003A031D9A289B289F2808307A
:100138002000D1007429F001F00A2000560882310D
:100148005D2280312000E0006003031DAC28AD284B
:10015800B8280230F000560882315D228031200034
:10016800E1000430D10074298531CF258031063073
:100178002000D1007429853180258031003A031987
:10018800C628C72874298331FB2380312100A800A1
:100198005730A9000030AA00200050082100290784
:1001A800AB0000302A3DAC002B0886002C088700E5
:1001B80028088100200061082100A800A901A81BC7
:1001C800A90301302000D00721002908803A803C8B
:1001D800031DF128280820005002031CF428F528E4
:1001E80074292000D0010530D1007429853180257B
:1001F8008031003A03190129022974298331FB232C
:1002080080312000DF005608F0005730F100003040
:10021800F200610883317923803120005F060319D9
:100228001629172918299B280730D100742920007E
:1002380056088131FB21803107302000D100200091
:1002480047088A0046080A0081318531C025803177
:100258002000D001D501210091125630F000003065
:10026800F1000030F200F3000D30F4000030F5002A
:100278008431B424803123009E1C432944294A290F
:100288008531CA2580312000D10174290930200028
:10029800D100742951082100A800A9012908003AB1
:1002A8000319572974292808003A03196028023AC3
:1002B80003196A28013A03198528073A0319BF2840
:1002C800013A0319FA28033A03191B29013A0319B9
:1002D80023290F3A03192929013A03193F297429B7
:1002E8000800F1007108F200F2187B297D2901301D
:1002F8007E290030F000721882298429013085296E
:1003080000307006031D89298B2972178C297213F6
:1003180072198F299129013092290030F000721B3F
:10032800962998290130992900307006031D9D29C6
:100338009F297217A0297213721AA329A5290130BF
:10034800A6290030F000721BAA29AC290130AD297A
:1003580000307006031DB129B3297217B42972132E
:10036800F219B729B9290130BA290030F000F2187A
:10037800BE29C0290130C12900307006031DC529D6
:10038800C729F217C829F213721ACB29CD290130CF
:10039800CE290030F000F21BD229D4290130D5290A
:1003A80000307006031DD929DB29F217DC29F21366
:1003B800F21ADF29E1290130E2290030F000F21BAE
:1003C800E629E8290130E92900307006031DED29E6
:1003D800EF29F217F029F2130310F21F0314031880
:1003E800F629F829F217F929F213720808002000F3
:1003F800E4004508E7004408E6003F30E405E5016D
:10040800162A660884006708850000086406031D2C
:100418000E2A0F2A102A1C2A0530E6070030E73D6D
:100428000130E50754086502031C1B2A1C2A052A0B
:1004380001306607840067080318013E850000083C
:10044800E00002306607840067080318013E850053
:100458000008E1005730F0000030F1000330660773
:10046800840067080318013E8500003FF200013F41
:10047800F3006108F400F501F41BF503843142240C
:10048800813120005608F0005730F1000030F200AA
:1004980061088331792381312000DF005608F90093
:1004A8005730FA000030FB00610884311F24813185
:1004B8000800F30020004508F6004408F5003F3026
:1004C800F305F401882A7508840076088500000879
:1004D8007306031D702A712A722AA72A0530F507A8
:1004E8000030F63D5408FF3EF100FF30031800309D
:1004F800F200740871067204031D832A842A862A6E
:100508000230BA2A0130F40754087402031C8D2AF9
:100518008E2A672AA72A75088400760885000008AD
:10052800BA2A01307507840076080318013E850051
:100538000008BA2A02307507840076080318013EBD
:1005480085000008BA2A7008F100F2017208003A22
:100558000319AF2A842A7108003A03198F2A013A2D
:100568000319952A033A03199E2A842A080063303E
:10057800F9008331AB2382312000EB00FF2AE81E0B
:10058800C62AC72ACA2A22008D16CC2A22008D1212
:100598002000651CD02AD12AD42A22000D16D62A7A
:1005A80022000D122000E41DDA2ADB2ADE2A2200AE
:1005B8008D15E02A22008D112000641FE42AE52A07
:1005C800E82A22000D15EA2A22000D112000641ED7
:1005D800EE2AEF2AF22A22008D14F42A22008D1026
:1005E8002000E41EF82AF92AFC2A22000D14042B04
:1005F80022000D10042B6B08013A0319C32A042B9F
:100608000800210091123F30F0000330F1008531DD
:10061800A3258331210011126230F0000430F1006B
:1006280085319D258331183023009F0090309D002F
:1006380024309E00E730F0000530F1008531AF2509
:100648008331DD30F0000530F1008531A925833193
:10065800E130F0000530F1008531B5258331200007
:10066800C901CF01CE010830CD00CC01CB01CA01B0
:1006780021009112080020004C08203E86008701C6
:10068800810123001D1D492B4A2B552B20004C08A6
:10069800203E8600870181143F088A003E080A0030
:1006A800833123009D1C592B5A2B652B20004C08A5
:1006B800203E8600870101153D088A003C080A0093
:1006C800833120004C08203E860087010108031969
:1006D8006E2B6F2B752B3B088A003A080A00833172
:1006E800782B8431F62483310800F5007008F30074
:1006F800F4017308F7007408F800F601A12B7108DB
:1007080086007208870001087707F7007808031841
:10071800780AF8000130F1070030F23D0130780224
:10072800003003197702031C9A2B9B2B9F2BFF3059
:10073800F7020030F83B0130F60775087602031C13
:10074800A62BA72B832BF709F809770808002000A8
:1007580056083F39FA007A080319B32BB42BB72B84
:100768000000000000007908F000F1015730F200A5
:100778000030F3000830F4000030F50084314224E2
:1007880083315630F0000030F1000030F200F30001
:100798000D30F4000030F5008431B42483317A0838
:1007A8000800F00020004D080319DB2BDC2BD62BAA
:1007B8002100111AE02BE12BE52B700823009A0089
:1007C800F82B111220004F08303E86008701700870
:1007D80081000130CF0708304F02031CF42BF52BA2
:1007E800F62BCF010130CD022100111608002000A0
:1007F8004A080319002C012CFB2B4B08203E8600CD
:1008080087010108C9004B08283E860087010108B6
:10081800F0000130CB0708304B02031C142C152CB8
:10082800162CCB012100911201302000CA022100B0
:10083800911670080800FC00FD012E2C7D087A072F
:10084800860000307B3D870001088331D523843141
:100858000130FD077C087D02031C332C342C222C2C
:100868007908F0007B08F2007A08F1007C088331EF
:10087800792384318331D523843108007208F80044
:100888007008F700552C7808860087010108F600E3
:100898000130F80777088600870176088100013063
:1008A800F7070130F4020030F53B740A031D602C91
:1008B800750A031D602C612C472C080008302000A5
:1008C8004D020318682C692C7D2C4E08303E86009A
:1008D8008701010823009A0001302000CE07083064
:1008E8004E02031C782C792C7A2CCE010130CD07CE
:1008F8007F2C210011120800220090018C018D012B
:100908008E01083021009000FF308C00C0308D002F
:10091800BF308E0023008D013F308C0024009001F1
:100928008D012100951722009D010800F700F001B4
:10093800F00A770882315D228431023A031DA52C22
:10094800A62CA82C0030B32C77083F3981317521AB
:1009580084317706031DB12CB22CA62C0130080077
:100968007008F600BE2C76088600870172088100A0
:100978000130F6070130F4020030F53B740A031D1C
:10098800C92C750A031DC92CCA2CB72C0800F600FF
:1009980073082000C5007208C4007608D4007508E2
:1009A800C7007408C6008531C02584318531CA2541
:1009B8008431853189258431080023009F131F1451
:1009C8009F14EC2C23001F18EA2CEB2CEC2CF22C97
:1009D800200053030319F12CF22CE62C23001908EC
:1009E8000000080020004C08283E860087012300EC
:1009F8001908810001302000CC0708304C02031C84
:100A0800062D072D082DCC010130CA07080021004A
:100A18001508C039143895000630200095000630B6
:100A2800C8000B118B16E630F0000530F100853157
:100A380097258531080084318024853185316925E1
:100A480085318531D925853185310B25853183312E
:100A58000523853185314225853108000B11200099
:100A6800480895003808390403193B2D3C2D412DC1
:100A780039088A0038080A0085310800BB30F200BE
:100A88008530F300BB30F4000230F50001308431CA
:100A9800CB2485310800F10071082000EC000030FB
:100AA8008531C5258531000001302000D3000800BC
:100AB80001302000D2076C085202031C642D652DFA
:100AC800682D8531D42585310800703021009900C2
:100AD80098012200960121001A1F732D742D6F2D85
:100AE800080085311F2585318B170B17803152205F
:100AF80085317A2D8031382820004A08031D852D3C
:100B0800872D0130882D003008005C30F00005305A
:100B1800F100853197258531080064008001013195
:100B2800890B922D003471082000B9007008B800B4
:100B3800080071082000C3007008C200080071088E
:100B48002000C1007008C000080071082000BD0026
:100B58007008BC00080071082000BF007008BE00C3
:100B6800080071082000BB007008BA0008000134B2
:100B780001340834A034003400002000D201D3012D
:100B88000800F000700820009500080023001D16DA
:100B980021009116080023001D122100911208005F
:100BA80000002000D201D301080016302100970070
:100BB800080023001D121D1608008431F624853113
:080BC80008000A3408000800CF
:020000040001F9
:04000E00E43FFF1FAD
:00000001FF
