:020000040000FA
:0400000080313828EB
:100008007E1480318B1E09280A2812280B1D0D2802
:100018000E28122885311725803136280B1F152800
:10002800162836282100111E1A281B2826282000E9
:10003800111E1F282028262843088A0042080A0083
:10004800803136282100911E2A282B2836282000A6
:10005800911E2F283028362841088A0040080A00B7
:10006800803136287E10090080313A288531CF2525
:100078008031EC0020308400003085004330853129
:1000880076258031A0308400003085000830853125
:10009800762580317E10200085315A2D20005503A9
:1000A800031D5728582848295308031D5C285D2834
:1000B80048290830D1004829293085313425803134
:1000C80001302000D5008531B9258031023020006B
:1000D800D1006E2923001F18722873286E29033057
:1000E8002000D1008531B42580318231FF22803152
:1000F800210091166E29853165258031003A031952
:10010800862887286E298331F52380312000D60080
:100118005608843194248031003A031D9428952888
:10012800992808302000D1006E29F001F00A20003B
:1001380056088231572280312000E0006003031DF9
:10014800A628A728B2280230F00056088231572284
:1001580080312000E1000430D1006E298531B425BA
:10016800803106302000D1006E2985316525803127
:10017800003A0319C028C1286E298331F52380313C
:100188002100A8005730A9000030AA00200050081C
:1001980021002907AB0000302A3DAC002B0886005F
:1001A8002C08870028088100200061082100A80089
:1001B800A901A81BA90301302000D00721002908A4
:1001C800803A803C031DEB28280820005002031CBD
:1001D800EE28EF286E292000D0010530D1006E29C5
:1001E800853165258031003A0319FB28FC286E29E2
:1001F8008331F52380312000DF005608F0005730A6
:10020800F1000030F200610883317323803120004F
:100218005F06031910291129122995280730D100E2
:100228006E29200056088131F521803107302000E1
:10023800D100200047088A0046080A00813185312C
:10024800A52580312000D001D5012100911256301A
:10025800F0000030F1000030F200F3000D30F4003F
:100268000030F5008431AE24803123009E1C3D29E6
:100278003E2944298531AF2580312000D1016E29DE
:1002880009302000D1006E2951082100A800A901D9
:100298002908003A031951296E292808003A031938
:1002A8006028023A03196E28013A03197F28073A91
:1002B8000319B928013A0319F428033A031915292F
:1002C800013A03191D290F3A03192329013A031981
:1002D80039296E290800F1007108F200F218752911
:1002E8007729013078290030F00072187C297E299E
:1002F80001307F2900307006031D83298529721774
:1003080086297213721989298B2901308C290030AA
:10031800F000721B90299229013093290030700651
:10032800031D9729992972179A297213721A9D2900
:100338009F290130A0290030F000721BA429A629AA
:100348000130A72900307006031DAB29AD297217AB
:10035800AE297213F219B129B3290130B42900303A
:10036800F000F218B829BA290130BB29003070060C
:10037800031DBF29C129F217C229F213721AC52910
:10038800C7290130C8290030F000F21BCC29CE293A
:100398000130CF2900307006031DD329D529F21763
:1003A800D629F213F21AD929DB290130DC290030C9
:1003B800F000F21BE029E2290130E3290030700641
:1003C800031DE729E929F217EA29F2130310F21F9E
:1003D80003140318F029F229F217F329F21372080B
:1003E80008002000E4004508E7004408E6003F3024
:1003F800E405E501102A66088400670885000008FE
:100408006406031D082A092A0A2A162A0530E6075F
:100418000030E73D0130E50754086502031C152A42
:10042800162AFF2901306607840067080318013E71
:1004380085000008E000023066078400670803189A
:10044800013E85000008E1005730F0000030F1005F
:1004580003306607840067080318013E8500003FE3
:10046800F200013FF3006108F400F501F41BF50305
:1004780084313C24813120005608F0005730F100C7
:100488000030F20061088331732381312000DF00DE
:100498005608F9005730FA000030FB006108843133
:1004A800192481310800F30020004508F6004408AB
:1004B800F5003F30F305F401822A750884007608B8
:1004C800850000087306031D6A2A6B2A6C2AA12A74
:1004D8000530F5070030F63D5408FF3EF100FF30C7
:1004E80003180030F200740871067204031D7D2A97
:1004F8007E2A802A0230B42A0130F4075408740294
:10050800031C872A882A612AA12A7508840076088C
:1005180085000008B42A013075078400760803189E
:10052800013E85000008B42A023075078400760869
:100538000318013E85000008B42A7008F100F20192
:100548007208003A0319A92A7E2A7108003A031989
:10055800892A013A03198F2A033A0319982A7E2A0D
:1005680008006330F9008331A52382312000EB00B5
:10057800F92AE81EC02AC12AC42A22008D16C62AD2
:1005880022008D122000651CCA2ACB2ACE2A2200FE
:100598000D16D02A22000D122000E41DD42AD52AD7
:1005A800D82A22008D15DA2A22008D112000641F16
:1005B800DE2ADF2AE22A22000D15E42A22000D1184
:1005C8002000641EE82AE92AEC2A22008D14EE2A6B
:1005D80022008D102000E41EF22AF32AF62A2200B7
:1005E8000D14FE2A22000D10FE2A6B08013A031989
:1005F800BD2AFE2A0800210091123930F00003308C
:10060800F100853188258231210011125C30F0001B
:100618000430F100853182258231183023009F0093
:1006280090309D0024309E00D130F0000530F1005C
:10063800853194258231C730F0000530F1008531CD
:100648008E258231CB30F0000530F10085319A25B6
:1006580082312000C901CF01CE010830CD00CC0184
:10066800CB01CA0121009112080020004C08203E4D
:1006780086008701810123001D1D432B442B4F2B2E
:1006880020004C08203E8600870181143F088A001C
:100698003E080A00833123009D1C532B542B5F2BEB
:1006A80020004C08203E8600870101153D088A007D
:1006B8003C080A00833120004C08203E8600870150
:1006C80001080319682B692B6F2B3B088A003A082D
:1006D8000A008331722B8431DB2483310800F50052
:1006E8007008F300F4017308F7007408F800F601C5
:1006F8009B2B710886007208870001087707F700AE
:1007080078080318780AF8000130F1070030F23D44
:1007180001307802003003197702031C942B952BC3
:10072800992BFF30F7020030F83B0130F6077508C7
:100738007602031CA02BA12B7D2BF709F80977085B
:100748000800200056083F39FA007A080319AD2B33
:10075800AE2BB12B0000000000007908F000F10179
:100768005730F2000030F3000830F4000030F50094
:1007780084313C2483315630F0000030F1000030E1
:10078800F200F3000D30F4000030F5008431AE249F
:1007980083317A080800F00020004D080319D52B92
:1007A800D62BD02B2100111ADA2BDB2BDF2B70086C
:1007B80023009A00F22B111220004F08303E8600C9
:1007C8008701700881000130CF0708304F02031CF1
:1007D800EE2BEF2BF02BCF010130CD0221001116AB
:1007E800080020004A080319FA2BFB2BF52B4B08AD
:1007F800203E860087010108C9004B08283E860074
:1008080087010108F0000130CB0708304B02031CB8
:100818000E2C0F2C102CCB0121009112013020003E
:10082800CA022100911670080800FC00FD01282C5E
:100838007D087A07860000307B3D870001088331F8
:10084800CF2384310130FD077C087D02031C2D2C49
:100858002E2C1C2C7908F0007B08F2007A08F10095
:100868007C088331732384318331CF23843108009A
:100878007208F8007008F7004F2C78088600870186
:100888000108F6000130F807770886008701760826
:1008980081000130F7070130F4020030F53B740A9B
:1008A800031D5A2C750A031D5A2C5B2C412C080079
:1008B800083020004D020318622C632C772C4E0858
:1008C800303E86008701010823009A00013020008D
:1008D800CE0708304E02031C722C732C742CCE01E8
:1008E8000130CD07792C2100111208002200900157
:1008F8008C018D018E01083021009000FF308C00A2
:10090800C0308D00BF308E0023008D013F308C0039
:10091800240090018D012100951722009D010800F7
:10092800F700F001F00A7708823157228431023A41
:10093800031D9F2CA02CA22C0030AD2C77083F392A
:1009480081316F2184317706031DAB2CAC2CA02C90
:10095800013008007008F600B82C76088600870178
:10096800720881000130F6070130F4020030F53BCF
:10097800740A031DC32C750A031DC32CC42CB12C87
:100988000800F60073082000C5007208C400760845
:10099800D4007508C7007408C6008531A5258431C0
:1009A8008531AF25843185316E25843108002000DA
:1009B8004C08283E86008701230019088100013071
:1009C8002000CC0708304C02031CEB2CEC2CED2C3F
:1009D800CC010130CA07080021001508C0391438B5
:1009E80095000630200095000630C8000B118B16C4
:1009F800D030F0000530F10085317C2584310800C5
:100A080084317A24853185314E2585318531C32558
:100A180085318431F02485318231FF228531853159
:100A28002725853108000B11200048089500380853
:100A380039040319202D212D262D39088A0038085C
:100A48000A0085310800A030F2008530F300B53087
:100A5800F4000230F50001308431C52485310800E6
:100A6800F10071082000EC0000308531AA2585319D
:100A7800000001302000D300080001302000D20718
:100A88006C085202031C492D4A2D4D2D8531BE2577
:100A980085310800703021009900980122009601E4
:100AA80021001A1F582D592D542D08008531042571
:100AB80085318B170B178031522085315F2D80319E
:100AC800382820004A08031D6A2D6C2D01306D2D31
:100AD800003008004130F0000530F10085317C25F8
:100AE80085310800640080010131890B772D0034BD
:100AF80071082000B9007008B800080071082000CB
:100B0800C3007008C200080071082000C100700806
:100B1800C000080071082000BD007008BC00080073
:100B280071082000BF007008BE000800710820008E
:100B3800BB007008BA000800013401340834A0343E
:100B4800003400002000D201D3010800F000700832
:100B580020009500080023001D16210091160800AA
:100B680023001D1221009112080023009F131F1457
:100B78009F14080000002000D201D301080016309D
:100B880021009700080023001D121D16080084315B
:0C0B9800DB24853108000A340800080046
:020000040001F9
:04000E00E43FFF1FAD
:00000001FF
