:0400000080313828EB
:100008007E1480318B1E09280A2812280B1D0D2802
:100018000E2812288531A025803136280B1F152877
:10002800162836282100111E1A281B2826282000E9
:10003800111E1F282028262843088A0042080A0083
:10004800803136282100911E2A282B2836282000A6
:10005800911E2F283028362841088A0040080A00B7
:10006800803136287E10090080313A2886317C2676
:100078008031EF0020308400003085004630853123
:10008800FF258031A030840000308500083085319C
:10009800FF2580317E1020008531E32D2000550397
:1000A800031D572858284B295308031D5C285D2831
:1000B8004B290830D1004B2929308531BD258031A5
:1000C80001302000D50086314226803102302000E0
:1000D800D100712923001F18722873287129033051
:1000E8002000D10086313D2680318331882380313C
:1000F8002100911671298531EE258031003A0319C6
:1001080086288728712984317E2480312000D900EF
:10011800230019082000590885311D258031003A2F
:10012800031D972898289C2808302000D1007129A1
:10013800F001F00A2000590883312A238031200079
:10014800E3006303031DA928AA28B5280230F0009C
:10015800590883312A2380312000E4000430D1007B
:10016800712986313D26803106302000D100712961
:100178008531EE258031003A0319C328C428712936
:1001880084317E2480312100A8005A30A900003033
:10019800AA002000500821002907AB0000302A3DA2
:1001A800AC002B0886002C08870028088100200056
:1001B80064082100A800A901A81BA9030130200098
:1001C800D00721002908803A803C031DEE28280822
:1001D80020005002031CF128F22871292000D001C8
:1001E8000530D10071298531EE258031003A031997
:1001F800FE28FF28712984317E2480312000E20006
:100208005908F0005A30F1000030F20064088331D8
:10021800FC238031200062060319132914291529AB
:1002280098280730D1007129200059088231C82246
:10023800803107302000D100200047088A00460896
:100248000A00813186312E2680312000D001D50167
:10025800210091125930F0000030F1000030F20016
:10026800F3000D30F4000030F5008531372580317A
:1002780023009E1C40294129472986313826803190
:100288002000D101712909302000D10071295108BD
:100298002100A800A9012908003A03195429712945
:1002A8002808003A03196028023A03196E28013A0F
:1002B80003197F28073A0319BC28013A0319F728BC
:1002C800033A03191829013A031920290F3A031987
:1002D8002629013A03193C29712908002000D80170
:1002E800D6016730F90084312E2481312000E600E0
:1002F800F52949306906031982298329892951304A
:100308006906031D882989298D29F830D8055614CE
:10031800D9290A3069060319922993299F2914308B
:1003280069060319982999299F2912306906031D1E
:100338009E299F29A5295808F8390138D800D614CC
:10034800D9298C3069060319AA29AB29B729943011
:1003580069060319B029B129B729AC306906031D0C
:10036800B629B729BD295808F8390338D8005615D1
:10037800A3294C306906031DC229C329C829580876
:10038800F8390238D8008B290B3069060319CD29B2
:10039800CE29D42913306906031DD329D429D92994
:1003A8005808F8390438D800BB29E81FDC29DD29AA
:1003B800DF29D815D615681FE229E329E52958173A
:1003C800D615681EE829E929EB295816D616E81E1D
:1003D800EE29EF29FA29D8165617FA29D801D60195
:1003E800FA296608013A03197D29F229561CFD29C4
:1003F800FE29022A863176268131052A8631792618
:1004080081312000D61C092A0A2A0E2A86315E2646
:100418008131112A8631612681312000561D152A25
:10042800162A1A2A8631642681311D2A86316726C2
:1004380081312000D61D212A222A262A86317026BB
:100448008131292A8631732681312000D61E2D2A32
:100458002E2A322A86316A268131352A86316D263E
:1004680081312000561F392A3A2A3E2A86315826D9
:100478008131412A86315B2681310800F1007108FB
:10048800F200F218482A4A2A01304B2A0030F000BC
:1004980072184F2A512A0130522A00307006031D63
:1004A800562A582A7217592A721372195C2A5E2A18
:1004B80001305F2A0030F000721B632A652A013080
:1004C800662A00307006031D6A2A6C2A72176D2A84
:1004D8007213721A702A722A0130732A0030F000DF
:1004E800721B772A792A01307A2A00307006031D98
:1004F8007E2A802A7217812A7213F219842A862A80
:100508000130872A0030F000F2188B2A8D2A01303A
:100518008E2A00307006031D922A942AF217952A13
:10052800F213721A982A9A2A01309B2A0030F00096
:10053800F21B9F2AA12A0130A22A00307006031D4F
:10054800A62AA82AF217A92AF213F21AAC2AAE2A66
:100558000130AF2A0030F000F21BB32AB52A01306F
:10056800B62A00307006031DBA2ABC2AF217BD2A23
:10057800F2130310F21F03140318C32AC52AF21733
:10058800C62AF213720808002000E7004508EA00AE
:100598004408E9003F30E705E801E32A69088400D8
:1005A8006A08850000086706031DDB2ADC2ADD2AA5
:1005B800E92A0530E9070030EA3D0130E807540828
:1005C8006802031CE82AE92AD22A01306907840054
:1005D8006A080318013E85000008E3000230690735
:1005E80084006A080318013E85000008E4005A30B8
:1005F800F0000030F1000330690784006A0803182E
:10060800013E8500003FF200013FF3006408F4005A
:10061800F501F41BF5038431C52482312000590803
:10062800F0005A30F1000030F20064088331FC23F6
:1006380082312000E2005908F9005A30FA000030EF
:10064800FB0064088431A22482310800F3002000F2
:100658004508F6004408F5003F30F305F401552B32
:10066800750884007608850000087306031D3D2B75
:100678003E2B3F2B742B0530F5070030F63D540810
:10068800FF3EF100FF3003180030F20074087106D5
:100698007204031D502B512B532B0230872B013032
:1006A800F40754087402031C5A2B5B2B342B742B4D
:1006B80075088400760885000008872B01307507C7
:1006C800840076080318013E85000008872B023055
:1006D8007507840076080318013E85000008872BFB
:1006E8007008F100F2017208003A03197C2B512BB3
:1006F8007108003A03195C2B013A0319622B033A7B
:1007080003196B2B512B080021009112C230F00005
:100718000330F10086311126833121001112E530B2
:10072800F0000430F10086310B26833118302300A5
:100738009F0090309D0024309E007E30F0000630EF
:10074800F10086311D2683315030F0000630F1006B
:100758008631172683315430F0000630F100863197
:10076800232683312000C901CF01CE010830CD00F6
:10077800CC01CB01CA0121009112080020004C08CD
:10078800203E86008701810123001D1DCC2BCD2B27
:10079800D82B20004C08203E8600870181143F0892
:1007A8008A003E080A00833123009D1CDC2BDD2BC8
:1007B800E82B20004C08203E8600870101153D08E3
:1007C8008A003C080A00833120004C08203E86003D
:1007D800870101080319F12BF22BF82B3B088A003B
:1007E8003A080A008331FB2B8531642583310800E0
:1007F800F5007008F300F4017308F7007408F800B6
:10080800F601242C71088600720887000108770712
:10081800F70078080318780AF8000130F10700306B
:10082800F23D01307802003003197702031C1D2CB9
:100838001E2C222CFF30F7020030F83B0130F6075F
:1008480075087602031C292C2A2C062CF709F809AE
:1008580077080800200059083F39FA007A08031978
:10086800362C372C3A2C0000000000007908F000E4
:10087800F1015A30F2000030F3000830F400003083
:10088800F5008431C52484315930F0000030F1007E
:100898000030F200F3000D30F4000030F50085312F
:1008A800372584317A080800F00020004D08031924
:1008B8005E2C5F2C592C2100111A632C642C682C97
:1008C800700823009A007B2C111220004F08303E3C
:1008D80086008701700881000130CF0708304F0279
:1008E800031C772C782C792CCF010130CD02210004
:1008F8001116080020004A080319832C842C7E2C2A
:100908004B08203E860087010108C9004B08283E95
:10091800860087010108F0000130CB0708304B0240
:10092800031C972C982C992CCB0121009112013093
:100938002000CA022100911670080800FC00FD0181
:10094800B12C7D087A07860000307B3D87000108BE
:100958008431582484310130FD077C087D02031C52
:10096800B62CB72CA52C7908F0007B08F2007A0881
:10097800F1007C088331FC2384318431582484318C
:1009880008007208F8007008F700D82C780886006C
:1009980087010108F6000130F8077708860087010B
:1009A800760881000130F7070130F4020030F53B8A
:1009B800740A031DE32C750A031DE32CE42CCA2CCE
:1009C8000800083020004D020318EB2CEC2C002DF9
:1009D8004E08303E86008701010823009A00013046
:1009E8002000CE0708304E02031CFB2CFC2CFD2CEB
:1009F800CE010130CD07022D21001112080022007E
:100A080090018C018D018E01083021009000FF308B
:100A18008C00C0308D00BF308E0023008D013F3028
:100A28008C00240090018D012100951722009D0162
:100A38000800F700F001F00A770883312A2385318E
:100A4800023A031D282D292D2B2D0030362D77082D
:100A58003F398231422285317706031D342D352DE9
:100A6800292D013008007008F600412D760886000F
:100A78008701720881000130F6070130F402003066
:100A8800F53B740A031D4C2D750A031D4C2D4D2D85
:100A98003A2D0800F60073082000C5007208C4004B
:100AA8007608D4007508C7007408C60086312E265B
:100AB80085318631382685318531F725853108001D
:100AC80020004C08283E8600870123001908810071
:100AD80001302000CC0708304C02031C742D752D02
:100AE800762DCC010130CA07080021001508C0394D
:100AF800143895000630200095000630C8000B1108
:100B08008B167D30F0000630F100863105268531E0
:100B180008008531032585318531D7258531863112
:100B28004C26853185317925853183318823853176
:100B38008531B025853108000B1120004808950043
:100B4800380839040319A92DAA2DAF2D39088A00B0
:100B580038080A00853108002930F2008630F30091
:100B68007230F4000130F500013085314E258531B1
:100B78000800F10071082000EF00003086313326AC
:100B88008531000001302000D3000800013020002A
:100B9800D2076F085202031CD22DD32DD62D8631D1
:100BA80047268531080070302100990098012200FD
:100BB800960121001A1FE12DE22DDD2D0800853157
:100BC8008D2585318B170B17803152208531E82D03
:100BD8008031382820004A08031DF32DF52D0130F7
:100BE800F62D00300800CA30F0000530F1008631DB
:100BF800052685310800640080010131890B002E2B
:100C0800003471082000B9007008B80008007108A5
:100C18002000C3007008C200080071082000C1004D
:100C28007008C000080071082000BD007008BC00F2
:100C3800080071082000BF007008BE000800710895
:100C48002000BB007008BA000800013401340834E1
:100C5800A034003400002000D201D3010800F000C5
:100C6800700820009500080023001D162100911629
:100C7800080023001D1221009112080023009F1371
:100C88001F149F14080000002000D201D30108009F
:100C9800163021009700080023001D121D160800B9
:100CA800853164258631080022000D1408002200D1
:100CB8000D10080022008D16080022008D12080071
:100CC80022008D15080022008D11080022008D14C5
:100CD800080022008D10080022000D1508002200CF
:100CE8000D11080022000D16080022000D12080040
:060CF8000A3408000800A8
:020000040001F9
:08000000FF3FFF3FFF3FFF3F00
:04000E00E43FFF1FAD
:00000001FF
